{
  "contractName": "Car",
  "abi": [
    {
      "constant": true,
      "inputs": [],
      "name": "vehicle",
      "outputs": [
        {
          "name": "",
          "type": "address"
        }
      ],
      "payable": false,
      "stateMutability": "view",
      "type": "function"
    },
    {
      "constant": true,
      "inputs": [
        {
          "name": "",
          "type": "address"
        }
      ],
      "name": "trustedCertCenters",
      "outputs": [
        {
          "name": "",
          "type": "bool"
        }
      ],
      "payable": false,
      "stateMutability": "view",
      "type": "function"
    },
    {
      "constant": false,
      "inputs": [],
      "name": "renounceOwnership",
      "outputs": [],
      "payable": false,
      "stateMutability": "nonpayable",
      "type": "function"
    },
    {
      "constant": true,
      "inputs": [],
      "name": "owner",
      "outputs": [
        {
          "name": "",
          "type": "address"
        }
      ],
      "payable": false,
      "stateMutability": "view",
      "type": "function"
    },
    {
      "constant": true,
      "inputs": [],
      "name": "isOwner",
      "outputs": [
        {
          "name": "",
          "type": "bool"
        }
      ],
      "payable": false,
      "stateMutability": "view",
      "type": "function"
    },
    {
      "constant": true,
      "inputs": [],
      "name": "tariff",
      "outputs": [
        {
          "name": "desiredToken",
          "type": "address"
        },
        {
          "name": "pricePerMinute",
          "type": "uint256"
        },
        {
          "name": "minimumCost",
          "type": "uint256"
        },
        {
          "name": "bookingCost",
          "type": "uint256"
        },
        {
          "name": "maxTime",
          "type": "uint256"
        }
      ],
      "payable": false,
      "stateMutability": "view",
      "type": "function"
    },
    {
      "constant": true,
      "inputs": [],
      "name": "state",
      "outputs": [
        {
          "name": "",
          "type": "uint8"
        }
      ],
      "payable": false,
      "stateMutability": "view",
      "type": "function"
    },
    {
      "constant": true,
      "inputs": [
        {
          "name": "",
          "type": "address"
        }
      ],
      "name": "renterDeposits",
      "outputs": [
        {
          "name": "",
          "type": "uint256"
        }
      ],
      "payable": false,
      "stateMutability": "view",
      "type": "function"
    },
    {
      "constant": true,
      "inputs": [],
      "name": "ETHER_ADDRESS",
      "outputs": [
        {
          "name": "",
          "type": "address"
        }
      ],
      "payable": false,
      "stateMutability": "view",
      "type": "function"
    },
    {
      "constant": true,
      "inputs": [
        {
          "name": "",
          "type": "uint160"
        }
      ],
      "name": "expiringCodesMerkleRoots",
      "outputs": [
        {
          "name": "",
          "type": "uint256"
        }
      ],
      "payable": false,
      "stateMutability": "view",
      "type": "function"
    },
    {
      "constant": false,
      "inputs": [
        {
          "name": "newOwner",
          "type": "address"
        }
      ],
      "name": "transferOwnership",
      "outputs": [],
      "payable": false,
      "stateMutability": "nonpayable",
      "type": "function"
    },
    {
      "inputs": [
        {
          "name": "vehicle",
          "type": "address"
        }
      ],
      "payable": false,
      "stateMutability": "nonpayable",
      "type": "constructor"
    },
    {
      "anonymous": false,
      "inputs": [
        {
          "indexed": true,
          "name": "newState",
          "type": "uint8"
        },
        {
          "indexed": true,
          "name": "oldState",
          "type": "uint8"
        }
      ],
      "name": "StateUpdated",
      "type": "event"
    },
    {
      "anonymous": false,
      "inputs": [],
      "name": "TariffUpdated",
      "type": "event"
    },
    {
      "anonymous": false,
      "inputs": [
        {
          "indexed": true,
          "name": "expiringCode",
          "type": "uint160"
        }
      ],
      "name": "ExpiringCodeAdded",
      "type": "event"
    },
    {
      "anonymous": false,
      "inputs": [
        {
          "indexed": true,
          "name": "expiringCode",
          "type": "uint160"
        }
      ],
      "name": "ExpiringCodeRemoved",
      "type": "event"
    },
    {
      "anonymous": false,
      "inputs": [
        {
          "indexed": true,
          "name": "certCenter",
          "type": "address"
        }
      ],
      "name": "CertCenterAdded",
      "type": "event"
    },
    {
      "anonymous": false,
      "inputs": [
        {
          "indexed": true,
          "name": "certCenter",
          "type": "address"
        }
      ],
      "name": "CertCenterRemoved",
      "type": "event"
    },
    {
      "anonymous": false,
      "inputs": [
        {
          "indexed": false,
          "name": "latitude",
          "type": "uint256"
        },
        {
          "indexed": false,
          "name": "longitude",
          "type": "uint256"
        }
      ],
      "name": "LocationUpdated",
      "type": "event"
    },
    {
      "anonymous": false,
      "inputs": [
        {
          "indexed": false,
          "name": "encKey",
          "type": "bytes32"
        },
        {
          "indexed": false,
          "name": "encLatitude",
          "type": "uint256"
        },
        {
          "indexed": false,
          "name": "encLongitude",
          "type": "uint256"
        }
      ],
      "name": "EncryptedLocationUpdated",
      "type": "event"
    },
    {
      "anonymous": false,
      "inputs": [
        {
          "indexed": true,
          "name": "renter",
          "type": "address"
        },
        {
          "indexed": false,
          "name": "amount",
          "type": "uint256"
        }
      ],
      "name": "DepositAdded",
      "type": "event"
    },
    {
      "anonymous": false,
      "inputs": [
        {
          "indexed": true,
          "name": "previousOwner",
          "type": "address"
        },
        {
          "indexed": true,
          "name": "newOwner",
          "type": "address"
        }
      ],
      "name": "OwnershipTransferred",
      "type": "event"
    },
    {
      "constant": false,
      "inputs": [
        {
          "name": "newState",
          "type": "uint8"
        }
      ],
      "name": "updateState",
      "outputs": [],
      "payable": false,
      "stateMutability": "nonpayable",
      "type": "function"
    },
    {
      "constant": false,
      "inputs": [
        {
          "name": "desiredToken",
          "type": "address"
        },
        {
          "name": "pricePerMinute",
          "type": "uint256"
        },
        {
          "name": "minimumCost",
          "type": "uint256"
        },
        {
          "name": "bookingCost",
          "type": "uint256"
        },
        {
          "name": "maxTime",
          "type": "uint256"
        }
      ],
      "name": "updateTariff",
      "outputs": [],
      "payable": false,
      "stateMutability": "nonpayable",
      "type": "function"
    },
    {
      "constant": false,
      "inputs": [
        {
          "name": "notYetTrustedCertCenters",
          "type": "address[]"
        },
        {
          "name": "alreadyTrustedCertCenters",
          "type": "address[]"
        }
      ],
      "name": "updateCertCenters",
      "outputs": [],
      "payable": false,
      "stateMutability": "nonpayable",
      "type": "function"
    },
    {
      "constant": false,
      "inputs": [
        {
          "name": "notYetExpiredCode",
          "type": "uint160"
        },
        {
          "name": "alreadyExpiredCodes",
          "type": "uint160[]"
        }
      ],
      "name": "addExpiringCode",
      "outputs": [],
      "payable": false,
      "stateMutability": "nonpayable",
      "type": "function"
    },
    {
      "constant": false,
      "inputs": [
        {
          "name": "latitude",
          "type": "uint256"
        },
        {
          "name": "longitude",
          "type": "uint256"
        }
      ],
      "name": "postLocation",
      "outputs": [],
      "payable": false,
      "stateMutability": "nonpayable",
      "type": "function"
    },
    {
      "constant": false,
      "inputs": [
        {
          "name": "encKey",
          "type": "bytes32"
        },
        {
          "name": "encLatitude",
          "type": "uint256"
        },
        {
          "name": "encLongitude",
          "type": "uint256"
        }
      ],
      "name": "postEncryptedLocation",
      "outputs": [],
      "payable": false,
      "stateMutability": "nonpayable",
      "type": "function"
    },
    {
      "constant": false,
      "inputs": [
        {
          "name": "kyber",
          "type": "address"
        },
        {
          "name": "certCenter",
          "type": "address"
        },
        {
          "name": "paymentToken",
          "type": "address"
        },
        {
          "name": "paymentAmount",
          "type": "uint256"
        }
      ],
      "name": "book",
      "outputs": [],
      "payable": true,
      "stateMutability": "payable",
      "type": "function"
    },
    {
      "constant": false,
      "inputs": [],
      "name": "cancelBooking",
      "outputs": [],
      "payable": false,
      "stateMutability": "nonpayable",
      "type": "function"
    },
    {
      "constant": false,
      "inputs": [
        {
          "name": "kyber",
          "type": "address"
        },
        {
          "name": "certCenter",
          "type": "address"
        },
        {
          "name": "paymentToken",
          "type": "address"
        },
        {
          "name": "paymentAmount",
          "type": "uint256"
        },
        {
          "name": "signature",
          "type": "bytes"
        },
        {
          "name": "merkleIndex",
          "type": "uint256"
        },
        {
          "name": "merkleProof",
          "type": "bytes"
        }
      ],
      "name": "rent",
      "outputs": [],
      "payable": false,
      "stateMutability": "nonpayable",
      "type": "function"
    }
  ],
  "bytecode": "0x608060405234801561001057600080fd5b506040516020806130048339810180604052602081101561003057600080fd5b810190808051906020019092919050505080336000806101000a81548173ffffffffffffffffffffffffffffffffffffffff021916908373ffffffffffffffffffffffffffffffffffffffff1602179055506000809054906101000a900473ffffffffffffffffffffffffffffffffffffffff1673ffffffffffffffffffffffffffffffffffffffff16600073ffffffffffffffffffffffffffffffffffffffff167f8be0079c531659141344cd1fd0a4f28419497f9722a3daafe3b4186f6b6457e060405160405180910390a3600073ffffffffffffffffffffffffffffffffffffffff168173ffffffffffffffffffffffffffffffffffffffff161415151561013a57600080fd5b80600160006101000a81548173ffffffffffffffffffffffffffffffffffffffff021916908373ffffffffffffffffffffffffffffffffffffffff1602179055505050612e788061018c6000396000f3fe60806040526004361061013c576000357c0100000000000000000000000000000000000000000000000000000000900480638f32d59b116100bd578063cf1d21c011610081578063cf1d21c01461073b578063e8f2960b14610792578063ea25f87e146107f7578063eef805dd1461089d578063f2fde38b1461092b5761013c565b80638f32d59b146104ac578063902cc6e3146104db5780639f908a201461062a578063c19d93fb1461069d578063c236cb2e146106d65761013c565b8063635caa7c11610104578063635caa7c146102fd57806364828bc1146103145780636850f50514610363578063715018a61461043e5780638da5cb5b146104555761013c565b80630591d3ab14610141578063132a339b1461017f57806344338322146101d6578063502b3e1d1461024f5780635fffa56e146102b8575b600080fd5b34801561014d57600080fd5b5061017d6004803603602081101561016457600080fd5b81019080803560ff16906020019092919050505061097c565b005b34801561018b57600080fd5b50610194610a3c565b604051808273ffffffffffffffffffffffffffffffffffffffff1673ffffffffffffffffffffffffffffffffffffffff16815260200191505060405180910390f35b3480156101e257600080fd5b5061024d600480360360a08110156101f957600080fd5b81019080803573ffffffffffffffffffffffffffffffffffffffff16906020019092919080359060200190929190803590602001909291908035906020019092919080359060200190929190505050610a62565b005b34801561025b57600080fd5b5061029e6004803603602081101561027257600080fd5b81019080803573ffffffffffffffffffffffffffffffffffffffff169060200190929190505050610b8e565b604051808215151515815260200191505060405180910390f35b3480156102c457600080fd5b506102fb600480360360408110156102db57600080fd5b810190808035906020019092919080359060200190929190505050610bae565b005b34801561030957600080fd5b50610312610c82565b005b34801561032057600080fd5b506103616004803603606081101561033757600080fd5b81019080803590602001909291908035906020019092919080359060200190929190505050610e30565b005b34801561036f57600080fd5b5061043c6004803603604081101561038657600080fd5b81019080803590602001906401000000008111156103a357600080fd5b8201836020820111156103b557600080fd5b803590602001918460208302840111640100000000831117156103d757600080fd5b9091929391929390803590602001906401000000008111156103f857600080fd5b82018360208201111561040a57600080fd5b8035906020019184602083028401116401000000008311171561042c57600080fd5b9091929391929390505050610f0d565b005b34801561044a57600080fd5b50610453611234565b005b34801561046157600080fd5b5061046a611306565b604051808273ffffffffffffffffffffffffffffffffffffffff1673ffffffffffffffffffffffffffffffffffffffff16815260200191505060405180910390f35b3480156104b857600080fd5b506104c161132f565b604051808215151515815260200191505060405180910390f35b3480156104e757600080fd5b50610628600480360360e08110156104fe57600080fd5b81019080803573ffffffffffffffffffffffffffffffffffffffff169060200190929190803573ffffffffffffffffffffffffffffffffffffffff169060200190929190803573ffffffffffffffffffffffffffffffffffffffff169060200190929190803590602001909291908035906020019064010000000081111561058557600080fd5b82018360208201111561059757600080fd5b803590602001918460018302840111640100000000831117156105b957600080fd5b909192939192939080359060200190929190803590602001906401000000008111156105e457600080fd5b8201836020820111156105f657600080fd5b8035906020019184600183028401116401000000008311171561061857600080fd5b9091929391929390505050611386565b005b34801561063657600080fd5b5061063f611a2e565b604051808673ffffffffffffffffffffffffffffffffffffffff1673ffffffffffffffffffffffffffffffffffffffff1681526020018581526020018481526020018381526020018281526020019550505050505060405180910390f35b3480156106a957600080fd5b506106b2611a72565b604051808260048111156106c257fe5b60ff16815260200191505060405180910390f35b3480156106e257600080fd5b50610725600480360360208110156106f957600080fd5b81019080803573ffffffffffffffffffffffffffffffffffffffff169060200190929190505050611a85565b6040518082815260200191505060405180910390f35b34801561074757600080fd5b50610750611a9d565b604051808273ffffffffffffffffffffffffffffffffffffffff1673ffffffffffffffffffffffffffffffffffffffff16815260200191505060405180910390f35b34801561079e57600080fd5b506107e1600480360360208110156107b557600080fd5b81019080803573ffffffffffffffffffffffffffffffffffffffff169060200190929190505050611ab5565b6040518082815260200191505060405180910390f35b34801561080357600080fd5b5061089b6004803603604081101561081a57600080fd5b81019080803573ffffffffffffffffffffffffffffffffffffffff1690602001909291908035906020019064010000000081111561085757600080fd5b82018360208201111561086957600080fd5b8035906020019184602083028401116401000000008311171561088b57600080fd5b9091929391929390505050611acd565b005b610929600480360360808110156108b357600080fd5b81019080803573ffffffffffffffffffffffffffffffffffffffff169060200190929190803573ffffffffffffffffffffffffffffffffffffffff169060200190929190803573ffffffffffffffffffffffffffffffffffffffff16906020019092919080359060200190929190505050611d9f565b005b34801561093757600080fd5b5061097a6004803603602081101561094e57600080fd5b81019080803573ffffffffffffffffffffffffffffffffffffffff1690602001909291905050506121f4565b005b61098461132f565b151561098f57600080fd5b80600481111561099b57fe5b600160149054906101000a900460ff1660048111156109b657fe5b141515156109c357600080fd5b600160149054906101000a900460ff1660048111156109de57fe5b8160048111156109ea57fe5b7fe4aef776f860057f58ea000ab82e7b8bde878204beb93e4136d2ac6602fb94da60405160405180910390a380600160146101000a81548160ff02191690836004811115610a3457fe5b021790555050565b600160009054906101000a900473ffffffffffffffffffffffffffffffffffffffff1681565b610a6a61132f565b1515610a7557600080fd5b60006004811115610a8257fe5b600160149054906101000a900460ff166004811115610a9d57fe5b141515610aa957600080fd5b7fbae5738665a9709907e5f0f0e04bfd3c5795b82db1693bff7201595a44ebda3e60405160405180910390a160a0604051908101604052808673ffffffffffffffffffffffffffffffffffffffff16815260200185815260200184815260200183815260200182815250600260008201518160000160006101000a81548173ffffffffffffffffffffffffffffffffffffffff021916908373ffffffffffffffffffffffffffffffffffffffff160217905550602082015181600101556040820151816002015560608201518160030155608082015181600401559050505050505050565b60096020528060005260406000206000915054906101000a900460ff1681565b600160009054906101000a900473ffffffffffffffffffffffffffffffffffffffff1673ffffffffffffffffffffffffffffffffffffffff163373ffffffffffffffffffffffffffffffffffffffff16141515610c0a57600080fd5b60026004811115610c1757fe5b600160149054906101000a900460ff166004811115610c3257fe5b14151515610c3f57600080fd5b7f8a910665d884a66cf9717fb33748c7ee20a53a52ce9b703d8c51fee0ea8695188282604051808381526020018281526020019250505060405180910390a15050565b60016004811115610c8f57fe5b600160149054906101000a900460ff166004811115610caa57fe5b148015610cf757506000600760003373ffffffffffffffffffffffffffffffffffffffff1673ffffffffffffffffffffffffffffffffffffffff1681526020019081526020016000205414155b1515610d0257600080fd5b610d7133600260000160009054906101000a900473ffffffffffffffffffffffffffffffffffffffff16600760003373ffffffffffffffffffffffffffffffffffffffff1673ffffffffffffffffffffffffffffffffffffffff16815260200190815260200160002054612213565b6000600760003373ffffffffffffffffffffffffffffffffffffffff1673ffffffffffffffffffffffffffffffffffffffff16815260200190815260200160002081905550600160149054906101000a900460ff166004811115610dd157fe5b60036004811115610dde57fe5b7fe4aef776f860057f58ea000ab82e7b8bde878204beb93e4136d2ac6602fb94da60405160405180910390a36003600160146101000a81548160ff02191690836004811115610e2957fe5b0217905550565b600160009054906101000a900473ffffffffffffffffffffffffffffffffffffffff1673ffffffffffffffffffffffffffffffffffffffff163373ffffffffffffffffffffffffffffffffffffffff16141515610e8c57600080fd5b60026004811115610e9957fe5b600160149054906101000a900460ff166004811115610eb457fe5b14151515610ec157600080fd5b7f97e8462d11db20f890bbf62d8f313968c636293ff5efd7e788ce7d72694a826583838360405180848152602001838152602001828152602001935050505060405180910390a1505050565b610f1561132f565b1515610f2057600080fd5b60008090505b828290508110156110a157600960008484848181101515610f4357fe5b9050602002013573ffffffffffffffffffffffffffffffffffffffff1673ffffffffffffffffffffffffffffffffffffffff1673ffffffffffffffffffffffffffffffffffffffff16815260200190815260200160002060009054906101000a900460ff161561109457600960008484848181101515610fbf57fe5b9050602002013573ffffffffffffffffffffffffffffffffffffffff1673ffffffffffffffffffffffffffffffffffffffff1673ffffffffffffffffffffffffffffffffffffffff16815260200190815260200160002060006101000a81549060ff0219169055828282818110151561103457fe5b9050602002013573ffffffffffffffffffffffffffffffffffffffff1673ffffffffffffffffffffffffffffffffffffffff167fb85b56ee0a7f7ee433d1ee73646078ce4f8b90e0062e79bb7e356587889fdd0560405160405180910390a25b8080600101915050610f26565b5060008090505b8484905081101561122d576009600086868481811015156110c557fe5b9050602002013573ffffffffffffffffffffffffffffffffffffffff1673ffffffffffffffffffffffffffffffffffffffff1673ffffffffffffffffffffffffffffffffffffffff16815260200190815260200160002060009054906101000a900460ff16151561122057600160096000878785818110151561114457fe5b9050602002013573ffffffffffffffffffffffffffffffffffffffff1673ffffffffffffffffffffffffffffffffffffffff1673ffffffffffffffffffffffffffffffffffffffff16815260200190815260200160002060006101000a81548160ff02191690831515021790555084848281811015156111c057fe5b9050602002013573ffffffffffffffffffffffffffffffffffffffff1673ffffffffffffffffffffffffffffffffffffffff167f6a4813cd66908ae3331e24117d3a065f35b32e05d6ceefeaea2f711e92185bcb60405160405180910390a25b80806001019150506110a8565b5050505050565b61123c61132f565b151561124757600080fd5b600073ffffffffffffffffffffffffffffffffffffffff166000809054906101000a900473ffffffffffffffffffffffffffffffffffffffff1673ffffffffffffffffffffffffffffffffffffffff167f8be0079c531659141344cd1fd0a4f28419497f9722a3daafe3b4186f6b6457e060405160405180910390a360008060006101000a81548173ffffffffffffffffffffffffffffffffffffffff021916908373ffffffffffffffffffffffffffffffffffffffff160217905550565b60008060009054906101000a900473ffffffffffffffffffffffffffffffffffffffff16905090565b60008060009054906101000a900473ffffffffffffffffffffffffffffffffffffffff1673ffffffffffffffffffffffffffffffffffffffff163373ffffffffffffffffffffffffffffffffffffffff1614905090565b6003600481111561139357fe5b600160149054906101000a900460ff1660048111156113ae57fe5b14806113de57506004808111156113c157fe5b600160149054906101000a900460ff1660048111156113dc57fe5b145b15156113e957600080fd5b600160048111156113f657fe5b600160149054906101000a900460ff16600481111561141157fe5b14801561145e57506000600760003373ffffffffffffffffffffffffffffffffffffffff1673ffffffffffffffffffffffffffffffffffffffff1681526020019081526020016000205414155b151561146957600080fd5b600960008973ffffffffffffffffffffffffffffffffffffffff1673ffffffffffffffffffffffffffffffffffffffff16815260200190815260200160002060009054906101000a900460ff16151561152a576040517f08c379a00000000000000000000000000000000000000000000000000000000081526004018080602001828103825260178152602001807f4e6f74207472757374656420636572742063656e74657200000000000000000081525060200191505060405180910390fd5b8773ffffffffffffffffffffffffffffffffffffffff1663644a1370336040518263ffffffff167c0100000000000000000000000000000000000000000000000000000000028152600401808273ffffffffffffffffffffffffffffffffffffffff1673ffffffffffffffffffffffffffffffffffffffff16815260200191505060206040518083038186803b1580156115c357600080fd5b505afa1580156115d7573d6000803e3d6000fd5b505050506040513d60208110156115ed57600080fd5b81019080805190602001909291905050501515611672576040517f08c379a00000000000000000000000000000000000000000000000000000000081526004018080602001828103825260128152602001807f52656e74657220636865636b206661696c73000000000000000000000000000081525060200191505060405180910390fd5b60006116de33604051602001808273ffffffffffffffffffffffffffffffffffffffff1673ffffffffffffffffffffffffffffffffffffffff166c0100000000000000000000000002815260140191505060405160208183030381529060405280519060200120612379565b905060006117308288888080601f016020809104026020016040519081016040528093929190818152602001838380828437600081840152601f19601f820116905080830192505050505050506123d1565b9050600061178d828787878080601f016020809104026020016040519081016040528093929190818152602001838380828437600081840152601f19601f820116905080830192505050505050506124b59092919063ffffffff16565b90506000600860008373ffffffffffffffffffffffffffffffffffffffff1673ffffffffffffffffffffffffffffffffffffffff16815260200190815260200160002054141515156117de57600080fd5b60006005603c880202600860008473ffffffffffffffffffffffffffffffffffffffff1673ffffffffffffffffffffffffffffffffffffffff1681526020019081526020016000205401905061012c42018110151561183c57600080fd5b600061186f8e600260000160009054906101000a900473ffffffffffffffffffffffffffffffffffffffff168e8e61266a565b90506118c381600760003373ffffffffffffffffffffffffffffffffffffffff1673ffffffffffffffffffffffffffffffffffffffff16815260200190815260200160002054612bde90919063ffffffff16565b600760003373ffffffffffffffffffffffffffffffffffffffff1673ffffffffffffffffffffffffffffffffffffffff168152602001908152602001600020819055506002800154600760003373ffffffffffffffffffffffffffffffffffffffff1673ffffffffffffffffffffffffffffffffffffffff168152602001908152602001600020541015151561195857600080fd5b3373ffffffffffffffffffffffffffffffffffffffff167fa2a2db73af12c9f5bef6303364d44e78f97e992c353cd8659f3474c471427e9b826040518082815260200191505060405180910390a2600160149054906101000a900460ff1660048111156119c157fe5b600260048111156119ce57fe5b7fe4aef776f860057f58ea000ab82e7b8bde878204beb93e4136d2ac6602fb94da60405160405180910390a36002600160146101000a81548160ff02191690836004811115611a1957fe5b02179055505050505050505050505050505050565b60028060000160009054906101000a900473ffffffffffffffffffffffffffffffffffffffff16908060010154908060020154908060030154908060040154905085565b600160149054906101000a900460ff1681565b60076020528060005260406000206000915090505481565b73eeeeeeeeeeeeeeeeeeeeeeeeeeeeeeeeeeeeeeee81565b60086020528060005260406000206000915090505481565b600160009054906101000a900473ffffffffffffffffffffffffffffffffffffffff1673ffffffffffffffffffffffffffffffffffffffff163373ffffffffffffffffffffffffffffffffffffffff16141515611b2957600080fd5b60036004811115611b3657fe5b600160149054906101000a900460ff166004811115611b5157fe5b141515611b5d57600080fd5b60008090505b82829050811015611cc9576000600860008585858181101515611b8257fe5b9050602002013573ffffffffffffffffffffffffffffffffffffffff1673ffffffffffffffffffffffffffffffffffffffff1673ffffffffffffffffffffffffffffffffffffffff16815260200190815260200160002054141515611cbc57600860008484848181101515611bf357fe5b9050602002013573ffffffffffffffffffffffffffffffffffffffff1673ffffffffffffffffffffffffffffffffffffffff1673ffffffffffffffffffffffffffffffffffffffff168152602001908152602001600020600090558282828181101515611c5c57fe5b9050602002013573ffffffffffffffffffffffffffffffffffffffff1673ffffffffffffffffffffffffffffffffffffffff167faa19b4e31c4e727f9dd8dece4655bec174fef36ddcd616348efcee10c7c6431060405160405180910390a25b8080600101915050611b63565b506000600860008573ffffffffffffffffffffffffffffffffffffffff1673ffffffffffffffffffffffffffffffffffffffff168152602001908152602001600020541415611d9a5742600860008573ffffffffffffffffffffffffffffffffffffffff1673ffffffffffffffffffffffffffffffffffffffff168152602001908152602001600020819055508273ffffffffffffffffffffffffffffffffffffffff167fdbcaf2029c454169a3826664444ba5618d1a0208643ac6b03c7e671b4c30eb2a60405160405180910390a25b505050565b60036004811115611dac57fe5b600160149054906101000a900460ff166004811115611dc757fe5b1480611df75750600480811115611dda57fe5b600160149054906101000a900460ff166004811115611df557fe5b145b1515611e0257600080fd5b600960008473ffffffffffffffffffffffffffffffffffffffff1673ffffffffffffffffffffffffffffffffffffffff16815260200190815260200160002060009054906101000a900460ff161515611ec3576040517f08c379a00000000000000000000000000000000000000000000000000000000081526004018080602001828103825260178152602001807f4e6f74207472757374656420636572742063656e74657200000000000000000081525060200191505060405180910390fd5b8273ffffffffffffffffffffffffffffffffffffffff1663644a1370336040518263ffffffff167c0100000000000000000000000000000000000000000000000000000000028152600401808273ffffffffffffffffffffffffffffffffffffffff1673ffffffffffffffffffffffffffffffffffffffff16815260200191505060206040518083038186803b158015611f5c57600080fd5b505afa158015611f70573d6000803e3d6000fd5b505050506040513d6020811015611f8657600080fd5b8101908080519060200190929190505050151561200b576040517f08c379a00000000000000000000000000000000000000000000000000000000081526004018080602001828103825260128152602001807f52656e74657220636865636b206661696c73000000000000000000000000000081525060200191505060405180910390fd5b600061203e85600260000160009054906101000a900473ffffffffffffffffffffffffffffffffffffffff16858561266a565b905061209281600760003373ffffffffffffffffffffffffffffffffffffffff1673ffffffffffffffffffffffffffffffffffffffff16815260200190815260200160002054612bde90919063ffffffff16565b600760003373ffffffffffffffffffffffffffffffffffffffff1673ffffffffffffffffffffffffffffffffffffffff16815260200190815260200160002081905550600260030154600760003373ffffffffffffffffffffffffffffffffffffffff1673ffffffffffffffffffffffffffffffffffffffff168152602001908152602001600020541015151561212857600080fd5b3373ffffffffffffffffffffffffffffffffffffffff167fa2a2db73af12c9f5bef6303364d44e78f97e992c353cd8659f3474c471427e9b826040518082815260200191505060405180910390a2600160149054906101000a900460ff16600481111561219157fe5b6001600481111561219e57fe5b7fe4aef776f860057f58ea000ab82e7b8bde878204beb93e4136d2ac6602fb94da60405160405180910390a360018060146101000a81548160ff021916908360048111156121e857fe5b02179055505050505050565b6121fc61132f565b151561220757600080fd5b61221081612bff565b50565b600073ffffffffffffffffffffffffffffffffffffffff168273ffffffffffffffffffffffffffffffffffffffff161415612294578273ffffffffffffffffffffffffffffffffffffffff166108fc829081150290604051600060405180830381858888f1935050505015801561228e573d6000803e3d6000fd5b50612374565b8173ffffffffffffffffffffffffffffffffffffffff1663a9059cbb84836040518363ffffffff167c0100000000000000000000000000000000000000000000000000000000028152600401808373ffffffffffffffffffffffffffffffffffffffff1673ffffffffffffffffffffffffffffffffffffffff16815260200182815260200192505050602060405180830381600087803b15801561233757600080fd5b505af115801561234b573d6000803e3d6000fd5b505050506040513d602081101561236157600080fd5b8101908080519060200190929190505050505b505050565b60008160405160200180807f19457468657265756d205369676e6564204d6573736167653a0a333200000000815250601c01828152602001915050604051602081830303815290604052805190602001209050919050565b600080600080604185511415156123ee57600093505050506124af565b6020850151925060408501519150606085015160001a9050601b8160ff16101561241957601b810190505b601b8160ff16141580156124315750601c8160ff1614155b1561244257600093505050506124af565b60018682858560405160008152602001604052604051808581526020018460ff1660ff1681526020018381526020018281526020019450505050506020604051602081039080840390855afa15801561249f573d6000803e3d6000fd5b5050506020604051035193505050505b92915050565b60008083905060008090505b855181101561265e5760006c01000000000000000000000000602088015104905060008260019060020a02861614156125a4578281604051602001808373ffffffffffffffffffffffffffffffffffffffff1673ffffffffffffffffffffffffffffffffffffffff166c010000000000000000000000000281526014018273ffffffffffffffffffffffffffffffffffffffff1673ffffffffffffffffffffffffffffffffffffffff166c010000000000000000000000000281526014019250505060405160208183030381529060405280519060200120600190049250612650565b8083604051602001808373ffffffffffffffffffffffffffffffffffffffff1673ffffffffffffffffffffffffffffffffffffffff166c010000000000000000000000000281526014018273ffffffffffffffffffffffffffffffffffffffff1673ffffffffffffffffffffffffffffffffffffffff166c0100000000000000000000000002815260140192505050604051602081830303815290604052805190602001206001900492505b5080806001019150506124c1565b50809150509392505050565b60008061267685612cf9565b9050600073ffffffffffffffffffffffffffffffffffffffff168473ffffffffffffffffffffffffffffffffffffffff161415156127d0578373ffffffffffffffffffffffffffffffffffffffff166323b872dd3330866040518463ffffffff167c0100000000000000000000000000000000000000000000000000000000028152600401808473ffffffffffffffffffffffffffffffffffffffff1673ffffffffffffffffffffffffffffffffffffffff1681526020018373ffffffffffffffffffffffffffffffffffffffff1673ffffffffffffffffffffffffffffffffffffffff1681526020018281526020019350505050602060405180830381600087803b15801561278557600080fd5b505af1158015612799573d6000803e3d6000fd5b505050506040513d60208110156127af57600080fd5b810190808051906020019092919050505015156127cb57600080fd5b6127e0565b8234101515156127df57600080fd5b5b8473ffffffffffffffffffffffffffffffffffffffff168473ffffffffffffffffffffffffffffffffffffffff16141515612bb257600073ffffffffffffffffffffffffffffffffffffffff168473ffffffffffffffffffffffffffffffffffffffff1614151561292b578373ffffffffffffffffffffffffffffffffffffffff1663095ea7b387856040518363ffffffff167c0100000000000000000000000000000000000000000000000000000000028152600401808373ffffffffffffffffffffffffffffffffffffffff1673ffffffffffffffffffffffffffffffffffffffff16815260200182815260200192505050602060405180830381600087803b1580156128ee57600080fd5b505af1158015612902573d6000803e3d6000fd5b505050506040513d602081101561291857600080fd5b8101908080519060200190929190505050505b8573ffffffffffffffffffffffffffffffffffffffff1663cb3c28c734600073ffffffffffffffffffffffffffffffffffffffff168773ffffffffffffffffffffffffffffffffffffffff16146129825786612998565b73eeeeeeeeeeeeeeeeeeeeeeeeeeeeeeeeeeeeeeee5b600073ffffffffffffffffffffffffffffffffffffffff168873ffffffffffffffffffffffffffffffffffffffff16146129d257866129d4565b345b600073ffffffffffffffffffffffffffffffffffffffff168a73ffffffffffffffffffffffffffffffffffffffff1614612a0e5789612a24565b73eeeeeeeeeeeeeeeeeeeeeeeeeeeeeeeeeeeeeeee5b307f80000000000000000000000000000000000000000000000000000000000000006000806040518963ffffffff167c0100000000000000000000000000000000000000000000000000000000028152600401808873ffffffffffffffffffffffffffffffffffffffff1673ffffffffffffffffffffffffffffffffffffffff1681526020018781526020018673ffffffffffffffffffffffffffffffffffffffff1673ffffffffffffffffffffffffffffffffffffffff1681526020018573ffffffffffffffffffffffffffffffffffffffff1673ffffffffffffffffffffffffffffffffffffffff1681526020018481526020018381526020018273ffffffffffffffffffffffffffffffffffffffff1673ffffffffffffffffffffffffffffffffffffffff1681526020019750505050505050506020604051808303818588803b158015612b7457600080fd5b505af1158015612b88573d6000803e3d6000fd5b50505050506040513d6020811015612b9f57600080fd5b8101908080519060200190929190505050505b6000612bbd86612cf9565b9050612bd28282612e2a90919063ffffffff16565b92505050949350505050565b6000808284019050838110151515612bf557600080fd5b8091505092915050565b600073ffffffffffffffffffffffffffffffffffffffff168173ffffffffffffffffffffffffffffffffffffffff1614151515612c3b57600080fd5b8073ffffffffffffffffffffffffffffffffffffffff166000809054906101000a900473ffffffffffffffffffffffffffffffffffffffff1673ffffffffffffffffffffffffffffffffffffffff167f8be0079c531659141344cd1fd0a4f28419497f9722a3daafe3b4186f6b6457e060405160405180910390a3806000806101000a81548173ffffffffffffffffffffffffffffffffffffffff021916908373ffffffffffffffffffffffffffffffffffffffff16021790555050565b60008073ffffffffffffffffffffffffffffffffffffffff168273ffffffffffffffffffffffffffffffffffffffff161415612d4e573073ffffffffffffffffffffffffffffffffffffffff16319050612e25565b8173ffffffffffffffffffffffffffffffffffffffff166370a08231306040518263ffffffff167c0100000000000000000000000000000000000000000000000000000000028152600401808273ffffffffffffffffffffffffffffffffffffffff1673ffffffffffffffffffffffffffffffffffffffff16815260200191505060206040518083038186803b158015612de757600080fd5b505afa158015612dfb573d6000803e3d6000fd5b505050506040513d6020811015612e1157600080fd5b810190808051906020019092919050505090505b919050565b6000828211151515612e3b57600080fd5b60008284039050809150509291505056fea165627a7a72305820360548b299cef46c13e2acd84a76fa5b856fe5ad94067683b0330408b7cfd4a10029",
  "source": "pragma solidity ^0.5.2;\n\nimport \"openzeppelin-solidity/contracts/ownership/Ownable.sol\";\nimport \"openzeppelin-solidity/contracts/cryptography/ECDSA.sol\";\nimport \"openzeppelin-solidity/contracts/token/ERC20/IERC20.sol\";\nimport \"./IndexedMerkleProof.sol\";\nimport \"./CertCenter.sol\";\nimport \"./Vehicle.sol\";\nimport \"./AnyPaymentReceiver.sol\";\nimport \"./IKyberNetwork.sol\";\n\n\ncontract Car is Ownable, Vehicle, AnyPaymentReceiver {\n    using ECDSA for bytes;\n    using IndexedMerkleProof for bytes;\n\n    enum State {\n        NotAvailable,\n        AlreadyBooked,\n        AlreadyRented,\n        AvailableForRent,\n        ReturningToHome\n    }\n\n    struct Tariff {\n        IERC20 desiredToken;\n        uint256 pricePerMinute;\n        uint256 minimumCost;\n        uint256 bookingCost;\n        uint256 maxTime;\n    }\n\n    State public state;\n    Tariff public tariff;\n    mapping(address => uint256) public renterDeposits;\n    mapping(uint160 => uint) public expiringCodesMerkleRoots;\n    mapping(address => bool) public trustedCertCenters;\n\n    event StateUpdated(State indexed newState, State indexed oldState);\n    event TariffUpdated();\n    event ExpiringCodeAdded(uint160 indexed expiringCode);\n    event ExpiringCodeRemoved(uint160 indexed expiringCode);\n    event CertCenterAdded(address indexed certCenter);\n    event CertCenterRemoved(address indexed certCenter);\n    event LocationUpdated(uint256 latitude, uint256 longitude);\n    event EncryptedLocationUpdated(bytes32 encKey, uint256 encLatitude, uint256 encLongitude);\n    event DepositAdded(address indexed renter, uint256 amount);\n\n    constructor(address vehicle)\n        public\n        Vehicle(vehicle)\n    {\n    }\n\n    // Owner methods\n\n    function updateState(State newState) external onlyOwner {\n        require(state != newState);\n        emit StateUpdated(newState, state);\n        state = newState;\n    }\n\n    function updateTariff(\n        IERC20 desiredToken,\n        uint256 pricePerMinute,\n        uint256 minimumCost,\n        uint256 bookingCost,\n        uint256 maxTime\n    )\n        external\n        onlyOwner\n    {\n        require(state == State.NotAvailable);\n        emit TariffUpdated();\n        tariff = Tariff({\n            desiredToken: desiredToken,\n            pricePerMinute: pricePerMinute,\n            minimumCost: minimumCost,\n            bookingCost: bookingCost,\n            maxTime: maxTime\n        });\n    }\n\n    function updateCertCenters(\n        address[] calldata notYetTrustedCertCenters,\n        address[] calldata alreadyTrustedCertCenters\n    )\n        external\n        onlyOwner\n    {\n        for (uint i = 0; i < alreadyTrustedCertCenters.length; i++) {\n            if (trustedCertCenters[alreadyTrustedCertCenters[i]]) {\n                delete trustedCertCenters[alreadyTrustedCertCenters[i]];\n                emit CertCenterRemoved(alreadyTrustedCertCenters[i]);\n            }\n        }\n\n        for (uint i = 0; i < notYetTrustedCertCenters.length; i++) {\n            if (!trustedCertCenters[notYetTrustedCertCenters[i]]) {\n                trustedCertCenters[notYetTrustedCertCenters[i]] = true;\n                emit CertCenterAdded(notYetTrustedCertCenters[i]);\n            }\n        }\n    }\n\n    // Vehicle methods\n\n    function addExpiringCode(\n        uint160 notYetExpiredCode,\n        uint160[] calldata alreadyExpiredCodes\n    )\n        external\n        onlyVehicle\n    {\n        require(state == State.AvailableForRent);\n\n        for (uint i = 0; i < alreadyExpiredCodes.length; i++) {\n            if (expiringCodesMerkleRoots[alreadyExpiredCodes[i]] != 0) {\n                delete expiringCodesMerkleRoots[alreadyExpiredCodes[i]];\n                emit ExpiringCodeRemoved(alreadyExpiredCodes[i]);\n            }\n        }\n\n        if (expiringCodesMerkleRoots[notYetExpiredCode] == 0) {\n            expiringCodesMerkleRoots[notYetExpiredCode] = now;\n            emit ExpiringCodeAdded(notYetExpiredCode);\n        }\n    }\n\n    function postLocation(uint256 latitude, uint256 longitude) public onlyVehicle {\n        require(state != State.AlreadyRented);\n        emit LocationUpdated(latitude, longitude);\n    }\n\n    function postEncryptedLocation(bytes32 encKey, uint256 encLatitude, uint256 encLongitude) public onlyVehicle {\n        require(state != State.AlreadyRented);\n        emit EncryptedLocationUpdated(encKey, encLatitude, encLongitude);\n    }\n\n    // Renter methods\n\n    function book(\n        IKyberNetwork kyber, // 0x818E6FECD516Ecc3849DAf6845e3EC868087B755;\n        CertCenter certCenter,\n        address paymentToken,\n        uint256 paymentAmount\n    )\n        external\n        payable\n    {\n        require(state == State.AvailableForRent || state == State.ReturningToHome);\n        require(trustedCertCenters[address(certCenter)], \"Not trusted cert center\");\n        require(certCenter.renters(msg.sender), \"Renter check fails\");\n\n        uint256 deposit = _processPayment(kyber, address(tariff.desiredToken), paymentToken, paymentAmount);\n        renterDeposits[msg.sender] = renterDeposits[msg.sender].add(deposit);\n        require(renterDeposits[msg.sender] >= tariff.bookingCost);\n        emit DepositAdded(msg.sender, deposit);\n\n        emit StateUpdated(State.AlreadyBooked, state);\n        state = State.AlreadyBooked;\n    }\n\n    function cancelBooking() external {\n        require(state == State.AlreadyBooked && renterDeposits[msg.sender] != 0);\n        _returnRemainder(msg.sender, tariff.desiredToken, renterDeposits[msg.sender]);\n        renterDeposits[msg.sender] = 0;\n\n        emit StateUpdated(State.AvailableForRent, state);\n        state = State.AvailableForRent;\n    }\n\n    function rent(\n        IKyberNetwork kyber, // 0x818E6FECD516Ecc3849DAf6845e3EC868087B755;\n        CertCenter certCenter,\n        address paymentToken,\n        uint256 paymentAmount,\n        bytes calldata signature,\n        uint256 merkleIndex,\n        bytes calldata merkleProof\n    )\n        external\n    {\n        require(state == State.AvailableForRent ||\n                state == State.ReturningToHome);\n        require(state == State.AlreadyBooked && renterDeposits[msg.sender] != 0);\n        require(trustedCertCenters[address(certCenter)], \"Not trusted cert center\");\n        require(certCenter.renters(msg.sender), \"Renter check fails\");\n\n        bytes32 messageHash = ECDSA.toEthSignedMessageHash(keccak256(abi.encodePacked(msg.sender)));\n        address signer = ECDSA.recover(messageHash, signature);\n        uint160 merkleRoot = merkleProof.compute(uint160(signer), merkleIndex);\n        require(expiringCodesMerkleRoots[merkleRoot] != 0);\n\n        uint256 time = expiringCodesMerkleRoots[merkleRoot] + merkleIndex * 60 * 5;\n        require(time < now + 60 * 5);\n\n        uint256 deposit = _processPayment(kyber, address(tariff.desiredToken), paymentToken, paymentAmount);\n        renterDeposits[msg.sender] = renterDeposits[msg.sender].add(deposit);\n        require(renterDeposits[msg.sender] >= tariff.minimumCost);\n        emit DepositAdded(msg.sender, deposit);\n\n        emit StateUpdated(State.AlreadyRented, state);\n        state = State.AlreadyRented;\n    }\n}\n",
  "sourcePath": "/Users/k06a/Projects/jobocar/contracts/Car.sol",
  "compiler": {
    "name": "solc",
    "version": "0.5.2+commit.1df8f40c.Emscripten.clang"
  },
  "schemaVersion": "3.0.2",
  "updatedAt": "2019-02-17T02:58:55.438Z",
  "devdoc": {
    "methods": {
      "isOwner()": {
        "return": "true if `msg.sender` is the owner of the contract."
      },
      "owner()": {
        "return": "the address of the owner."
      },
      "renounceOwnership()": {
        "details": "Allows the current owner to relinquish control of the contract."
      },
      "transferOwnership(address)": {
        "details": "Allows the current owner to transfer control of the contract to a newOwner.",
        "params": {
          "newOwner": "The address to transfer ownership to."
        }
      }
    }
  },
  "userdoc": {
    "methods": {
      "renounceOwnership()": {
        "notice": "Renouncing to ownership will leave the contract without an owner. It will not be possible to call the functions with the `onlyOwner` modifier anymore."
      }
    }
  }
}